:100000000C9458000C9480000C9480000C94800098
:100010000C9480000C9480000C9480000C94800060
:100020000C9480000C9480000C9480000C94800050
:100030000C9480000C9480000C9480000C94800040
:100040000C9429050C9480000C9499050C9473056C
:100050000C9480000C9480000C9480000C94800020
:100060000C94CB050C9480000000000025002800B3
:100070002B00040404040404040402020202020229
:10008000030303030303010204081020408001025C
:1000900004081020010204081020000000080002DB
:1000A0000100000304070000000000000000F90642
:1000B00011241FBECFEFD8E0DEBFCDBF13E0A0E01C
:1000C000B1E0E0E1F2E102C005900D92AC33B1077E
:1000D000D9F725E0ACE3B3E001C01D92A336B20727
:1000E000E1F710E0C8E5D0E004C02197FE010E94CE
:1000F000EB08C735D107C9F70E9455070C940609CC
:100100000C94000090E0FC01E656FF4F2491FC01A6
:10011000EA57FF4F3491FC01EE58FF4FE491EE2374
:10012000B1F1222339F1233091F038F42130A9F0D4
:10013000223001F584B58F7D12C0273091F0283030
:10014000A1F02430B9F4809180008F7D03C08091AC
:1001500080008F77809380000DC084B58F7784BD39
:1001600009C08091B0008F7703C08091B0008F7D6F
:100170008093B000F0E0EE0FFF1FE859FF4FA5910C
:10018000B4918FB7F894EC913E2B3C938FBF0895B8
:10019000209192049091F103213208F04AC080919D
:1001A00091048111FCCF32E03093910431E030931F
:1001B00090043FEF3093CF031092CE032093CD03F2
:1001C000A1EDB3E04DEA53E0FA013E2F341B3217A4
:1001D00018F43D913193F9CF1092AC032091AC0308
:1001E000990F922B9093AC0390918F04913061F40E
:1001F00010928F049091AC039093BB009091BC003F
:1002000093FDF8CF95EC01C095EE9093BC009091D2
:1002100091049230E1F39091CF039F3F79F0809168
:10022000CF03803241F08091CF03803331F084E0FE
:1002300005C081E003C082E001C083E01092930416
:10024000109292041092D0030895CF93DF93D1E0DF
:10025000C0E5D093D003C093F103109293041092A1
:1002600092040E94C8008111F4CFDF91CF910895CC
:100270008091940490E020919504821B9109089547
:10028000FC01538D448D252F30E0842F90E0821B9C
:10029000930B541710F0CF96089501970895FC0121
:1002A000918D828D981761F0828DDF01A80FB11DAD
:1002B0005D968C91928D9F5F9F73928F90E00895D1
:1002C0008FEF9FEF0895FC01918D828D981731F08B
:1002D000828DE80FF11D858D90E008958FEF9FEFDF
:1002E0000895FC01918D228D892F90E0805C9F4FB5
:1002F000821B91098F739927089582EF93E00E94E2
:10030000710121E0892B09F420E0822F0895FC017E
:10031000848DDF01A80FB11DA35ABF4F2C91848D8E
:1003200090E001968F739927848FA689B7892C93C3
:10033000A089B1898C9180648C93938D848D98135E
:1003400006C00288F389E02D80818F7D8083089527
:10035000EF92FF920F931F93CF93DF93EC0181E015
:10036000888F9B8D8C8D981305C0E889F9898081D1
:1003700085FD24C0F62E0B8D10E00F5F1F4F0F730D
:100380001127E02E8C8DE8120CC00FB607FCFACFB7
:10039000E889F989808185FFF5CFCE010E94870128
:1003A000F1CF8B8DFE01E80FF11DE35AFF4FF08274
:1003B0000B8FEA89FB898081806207C0EE89FF8903
:1003C0006083E889F98980818064808381E090E09E
:1003D000DF91CF911F910F91FF90EF900895CF93F0
:1003E000DF93EC01888D8823C9F0EA89FB8980813D
:1003F00085FD05C0A889B9898C9186FD0FC00FB60F
:1004000007FCF5CF808185FFF2CFA889B9898C914F
:1004100085FFEDCFCE010E948701E7CFDF91CF911D
:10042000089580E090E0892B29F00E947D018111E0
:100430000C9400000895CF92DF92EF92FF920F93F9
:100440001F93CF93DF936C017A018B01C0E0D0E062
:10045000CE15DF0589F0D8016D918D01D601ED91A2
:10046000FC910190F081E02DC6010995892B11F4D2
:100470007E0102C02196ECCFC701DF91CF911F9181
:100480000F91FF90EF90DF90CF90089585ED8093CE
:10049000BC008091BC0084FDFCCF109291040895B3
:1004A00040915E03262F30E0240F311D21323105AB
:1004B000DCF4209191042430C9F4FC0180E090E048
:1004C000861758F430915E032191DC01A45CBC4F87
:1004D000A30FB11D2C930196F3CF80915E03680F9B
:1004E00060935E0380E0089581E0089582E00895BE
:1004F0000895E091950480919404E81730F4F0E0B9
:10050000E457FC4F808190E008958FEF9FEF0895AE
:100510009091950480919404981750F4E92FF0E09D
:10052000E457FC4F208130E09F5F9093950402C018
:100530002FEF3FEFC9010895CF92DF92EF92FF9224
:100540000F931F93CF93DF937C01262F972F8A0160
:100550008091D003882391F0C62FD72F6E01C40E4F
:10056000D51ECC15DD0571F06991D701ED91FC9197
:100570000190F081E02DC7010995F3CF642F822F00
:100580000E945002C801DF91CF911F910F91FF90FF
:10059000EF90DF90CF900895CF93DF931F92CDB768
:1005A000DEB769832091D0032223D1F020919204F9
:1005B000203240F021E030E0FC013383228380E0F0
:1005C00090E015C080919304E82FF0E0EF52FC4FCB
:1005D000998190838F5F809393048093920405C0E8
:1005E00061E0CE0101960E94500281E090E00F9000
:1005F000DF91CF910895BF92CF92DF92EF92FF9259
:100600000F931F93CF93DF93EB017B0120E4E20E66
:10061000F11C8C0186E0000F111F8A95E1F7BB24C5
:10062000B39490E5C92ED9900E942501B092D003D1
:10063000C092F1031092930410929204612F86E904
:1006400094E00E94CC02602F86E994E00E94CC02E4
:100650006D2D86E994E00E94CC020E94C8000E94A1
:1006600025010F5F1F4FCE15DF05E9F6DF91CF9112
:100670001F910F91FF90EF90DF90CF90BF90089562
:10068000089580E090E008956F927F928F929F92FC
:10069000AF92BF92CF92DF92EF92FF920F931F9390
:1006A000CF93DF93EB016B0120E4C20ED11C8C01D0
:1006B00086E0000F111F8A95E1F7FF24F39490E57F
:1006C000E92E99249A9425EE822E35EC732E4CE86F
:1006D000A42E43E0B42E0E942501F092D003E092B4
:1006E000F1031092930410929204612F86E994E032
:1006F0000E94CC02602F86E994E00E94CC020E9406
:10070000C800809191048111FCCFF0929104F09285
:1007100090049092CF031092CE031092CD03F092EA
:10072000AC038091AC03806A8093AC0380918F040A
:10073000813069F410928F048091AC038093BB00E8
:100740008091BC0083FDF8CF7092BC0002C0809203
:10075000BC00809191048130E1F38091CE0381113E
:1007600003C08091CE0301C081E0ADEAB3E0ECE8C4
:10077000F3E09E2F9A19981718F49D919193F9CF51
:100780001092950480939404811101C0FFCF86E9F3
:1007900094E00E948802682E0E94C80069920F5F50
:1007A0001F4FCC15DD0509F096CFDF91CF911F913A
:1007B0000F91FF90EF90DF90CF90BF90AF909F9000
:1007C0008F907F906F900895009769F0FC010190E1
:1007D0000020E9F73197AF01481B590BBC0182EFAC
:1007E00093E00C941B0280E090E00895CF93DF9398
:1007F0000E94E403EC018CE291E00E94E4038C0F80
:100800009D1FDF91CF9108958F929F92AF92BF92DB
:100810000F931F93CF93DF93CDB7DEB7A1970FB69A
:10082000F894DEBF0FBECDBF19A2423008F44AE0F3
:100830008E010F5D1F4F842E912CA12CB12CA50190
:1008400094010E94C908E62FB901CA01015011099B
:10085000EA3014F4E05D01C0E95CD801EC93232B8D
:10086000242B252B61F7C8010E94E403A1960FB643
:10087000F894DEBF0FBECDBFDF91CF911F910F91D6
:10088000BF90AF909F908F900895CF92DF92EF929C
:10089000FF92CF93DF936B017C01E091F203F09123
:1008A000F3030190F081E02D6DE282EF93E0099572
:1008B000EC0166277727CB016C197D098E099F090A
:1008C0004AE00E9404048C0F9D1FDF91CF91FF909E
:1008D000EF90DF90CF900895EF92FF920F931F93C8
:1008E000CF93DF938C018FE291E00E94F60322EE1A
:1008F000E22E24E0F22EE701899199918F3F2FEFAC
:10090000920771F062E275E00E944403B80182E24E
:1009100095E00E94FD08892B19F480E491E08FC0D6
:1009200045E0C232D40741F7A2EAB4E020E030E06B
:100930009D91E0E0F1E0C0E0D0E04191842F892377
:1009400084131BC0F901EE55FB4F8927808393E088
:10095000220F331F9A95E1F7C20FD31FBE010D2E50
:10096000000C880B990B4AE00E9404048CE291E091
:100970000E94E40320E030E00CC02196C830D1058D
:10098000E1F62F5F3F4F2034310591F688E691E084
:1009900056C0F701819191917F01019659F4220F80
:1009A000331FF901EE51FB4FD183C08382E295E002
:1009B000FC0108C02F5F3F4F2032310551F782E81C
:1009C00091E03DC0119225E0E034F207D9F7D8015B
:1009D000F80101900020E9F73197E01BF10B9D0130
:1009E000201B310B2E173F0728F42D91FC0121937A
:1009F000CF01EECF1092410510924005E2E4F5E000
:100A00008FEF9FEF8193919325E0E236F207D1F7C4
:100A100062E275E0CE010E94FB0262EE74E081E0CA
:100A200090E00E94FB0262EA74E080E090E0DF91D7
:100A3000CF911F910F91FF90EF900C94FB02DF91EB
:100A4000CF911F910F91FF90EF900C94F6030E94AD
:100A5000F1081F920F920FB60F9211242F933F931C
:100A60008F939F93AF93BF93809188039091890355
:100A7000A0918A03B0918B033091870323E0230F69
:100A80002D3720F40196A11DB11D05C026E8230FC6
:100A90000296A11DB11D2093870380938803909334
:100AA0008903A0938A03B0938B0380918303909171
:100AB0008403A0918503B09186030196A11DB11D09
:100AC0008093830390938403A0938503B09386035C
:100AD000BF91AF919F918F913F912F910F900FBE3A
:100AE0000F901F9018951F920F920FB60F9211241E
:100AF0002F933F934F935F936F937F938F939F9326
:100B0000AF93BF93EF93FF9382EF93E00E9487012F
:100B1000FF91EF91BF91AF919F918F917F916F91D5
:100B20005F914F913F912F910F900FBE0F901F90AB
:100B300018951F920F920FB60F9211242F938F9337
:100B40009F93EF93FF93E0910204F091030480815F
:100B5000E0910804F091090482FD12C09081809117
:100B60000B048F5F8F7320910C04821751F0E0917A
:100B70000B04F0E0EE50FC4F958F80930B0401C006
:100B80008081FF91EF919F918F912F910F900FBED8
:100B90000F901F9018951F920F920FB60F9211246D
:100BA0002F933F934F935F936F937F938F939F9375
:100BB000AF93BF93EF93FF938091B900887F803606
:100BC00009F49CC068F5883209F45BC090F4803168
:100BD00009F454C038F4882309F4F6C0883009F4C5
:100BE0004DC0F6C0883109F44CC0803209F45DC0B4
:100BF000EFC0803409F468C048F4803309F455C06C
:100C0000883309F0E5C08093CF03D8C0803509F45C
:100C10004FC0883509F45DC0883409F0D9C0D6C00A
:100C2000883909F4C7C0A8F4883709F467C038F4D4
:100C3000883609F463C0803709F460C0C9C08838B9
:100C400009F4B8C0803909F45FC0803809F0C0C029
:100C50005BC0803B09F486C038F4803A09F466C072
:100C6000883A09F47FC0B4C0803C09F4A7C0883C2E
:100C700009F4A4C0883B09F48AC0AAC08091AC03DF
:100C800010C09091CE038091CD03981770F5E0913C
:100C9000CE0381E08E0F8093CE03F0E0E355FC4F4E
:100CA00080818093BB0085EC86C08093CF038EC08B
:100CB000E091CE0381E08E0F8093CE038091BB0044
:100CC000F0E0E355FC4F80839091CE038091CD03FB
:100CD0006EC0E091CE0381E08E0F8093CE038091B1
:100CE000BB00F0E0E355FC4F8083809190048111BC
:100CF0006DC081E080938F0484EA61C083E08093BB
:100D0000910410928203CFCF80918203803208F049
:100D100051C0E091820381E08E0F80938203809125
:100D2000BB00F0E0EE59FC4F8083BDCF85EC809393
:100D3000BC001092910480918203803230F4E091E3
:100D40008203F0E0EE59FC4F10826091820370E064
:100D5000E0916003F091610382E693E009951092BF
:100D6000820336C084E08093910410925F03109256
:100D70005E03E0915C03F0915D03099580915E0351
:100D8000811105C081E080935E0310923C03E091E5
:100D90005F0381E08E0F80935F03F0E0E45CFC4F23
:100DA00080818093BB0090915F0380915E039817D0
:100DB00008F479CF85E88093BC000AC085EC809365
:100DC000BC001092910404C01092CF030E9446020E
:100DD000FF91EF91BF91AF919F918F917F916F9113
:100DE0005F914F913F912F910F900FBE0F901F90E9
:100DF0001895E2EFF3E01382128288EE93E0A0E010
:100E0000B0E084839583A683B7832CE031E03183FF
:100E1000208325EC30E03587248724EC30E03787C9
:100E2000268720EC30E0318B208B21EC30E0338BB7
:100E3000228B22EC30E0358B248B26EC30E0378B94
:100E4000268B118E128E138E148EE6E9F4E0138237
:100E5000128284839583A683B7838EE191E0918388
:100E6000808310929504109294041092930410922F
:100E700092041092910481E08093900410928F0468
:100E800082E10E94820083E10E948200E9EBF0E0AF
:100E900080818E7F808380818D7F808388E48093B2
:100EA000B80085E48093BC000895789484B582608E
:100EB00084BD84B5816084BD85B5826085BD85B5FE
:100EC000816085BD80916E00816080936E0010927C
:100ED00081008091810082608093810080918100F7
:100EE0008160809381008091800081608093800088
:100EF0008091B10084608093B1008091B0008160E6
:100F00008093B00080917A00846080937A00809111
:100F10007A00826080937A0080917A008160809369
:100F20007A0080917A00806880937A001092C100E4
:100F3000E0910204F091030482E08083E091FE03DB
:100F4000F091FF031082E0910004F091010480E130
:100F5000808310920A04E0910604F091070486E071
:100F60008083E0910404F091050480818061808396
:100F7000E0910404F0910504808188608083E09111
:100F80000404F0910504808180688083E09104046A
:100F9000F091050480818F7D808384EA91E00E9436
:100FA000F60340E450E06FEF70E082EA94E00E94C4
:100FB000F608E2EEF4E08FEF9FEF8193919325E046
:100FC000E232F207D1F78CEF8093A20462EA74E078
:100FD00080E090E00E94FB0262EE74E081E090E02D
:100FE0000E94FB0262EA74E080E090E00E94440309
:100FF00062EE74E081E090E00E94440388EB91E0AF
:101000000E946C0482EC91E00E946C048CEC91E0F4
:101010000E946C0486ED91E00E946C0480EE91E0E9
:101020000E946C048AEE91E00E946C0484EF91E0CF
:101030000E946C048EEF91E00E946C0488E092E0C4
:101040000E946C0482E192E00E946C048DE192E0C7
:101050000E946C0488E292E00E946C0483E392E0B8
:101060000E946C048EE392E00E946C0489E492E09A
:101070000E946C0484E592E00E946C048FE592E08B
:101080000E946C048AE692E00E946C0485E792E07C
:101090000E946C0480E892E00E946C048BE892E06D
:1010A0000E946C0486E992E00E946C0481EA92E05E
:1010B0000E946C048CEA92E00E946C0487EB92E040
:1010C0000E946C0482EC92E00E946C048DEC92E031
:1010D0000E946C0488ED92E00E946C0483EE92E022
:1010E0000E946C048EEE92E00E946C0489EF92E004
:1010F0000E946C0484E093E00E946C048FE093E013
:101100000E946C048AE193E00E94F603C2EED4E0F0
:10111000899199918F3F2FEF9207A1F162E275E0DB
:101120000E944403E2E4F5E000E010E08191919137
:10113000019611F0005C1F4F85E0E236F807B1F729
:101140008BE293E00E94E40382E295E00E94E403D4
:1011500082E393E00E94E403B801110F880B990B1E
:101160004AE00E94040485E393E00E94E403E091D6
:10117000F203F091F3030190F081E02D6AE082EF39
:1011800093E0099525E0C232D20711F60E941102C0
:1011900035CFA1E21A2EAA1BBB1BFD010DC0AA1F51
:1011A000BB1FEE1FFF1FA217B307E407F50720F0D0
:1011B000A21BB30BE40BF50B661F771F881F991F4B
:1011C0001A9469F760957095809590959B01AC0194
:1011D000BD01CF010895EE0FFF1F0590F491E02DA2
:1011E000099481E090E0F8940C940609DC0101C0B8
:1011F0006D9341505040E0F70895FB01DC018D9163
:10120000019080190110D9F3990B0895F894FFCF3C
:10121000010204081020408000000000A8011B0209
:101220004001EF0171014F01630100000000CC0299
:101230009C02410378023801880279020D0A0043BA
:1012400072656174696E672046696C652E2E2E008A
:101250004552524F523A2046696C6520616C726566
:101260006164792065786973747320696E2064699C
:10127000726563746F7279004552524F523A204E34
:101280006F20737061636520696E20454550524F31
:101290004D004552524F523A204E6F207370616399
:1012A0006520696E2066696C652064697265637487
:1012B0006F727900466F726D6174696E6720454583
:1012C00050524F4D2E2E2E0046696C65312E74788B
:1012D000740046696C65322E7478740046696C65DA
:1012E000332E7478740046696C65342E74787400FB
:1012F00046696C65352E7478740046696C65362EC7
:101300007478740046696C65372E74787400466989
:101310006C65382E7478740046696C65392E747863
:10132000740046696C6531302E7478740046696CBF
:101330006531312E7478740046696C6531322E74D3
:1013400078740046696C6531332E74787400466990
:101350006C6531342E7478740046696C6531352EB5
:101360007478740046696C6531362E747874004662
:10137000696C6531372E7478740046696C65313854
:101380002E7478740046696C6531392E7478740057
:1013900046696C6532302E7478740046696C65322B
:1013A000312E7478740046696C6532322E7478740C
:1013B0000046696C6532332E7478740046696C653A
:1013C00032342E7478740046696C6532352E747828
:1013D000740046696C6532362E7478740046696C08
:1013E0006532372E7478740046696C6532382E7415
:1013F00078740046696C6532392E747874004669D9
:101400006C6533302E7478740046696C6533312E08
:101410007478740046696C6533322E7478740046B3
:10142000696C6533332E747874006C697374696EFB
:10143000672066696C65732E2E2E0046696C653ACE
:0C14400020002C200020627974657300ED
:00000001FF
