:100000000C9458000C9480000C9480000C94800098
:100010000C9480000C9480000C9480000C94800060
:100020000C9480000C9480000C9480000C94800050
:100030000C9480000C9480000C9480000C94800040
:100040000C94FD040C9480000C946D050C944705F1
:100050000C9480000C9480000C9480000C94800020
:100060000C949F050C9480000000000025002800DF
:100070002B00040404040404040402020202020229
:10008000030303030303010204081020408001025C
:1000900004081020010204081020000000080002DB
:1000A0000100000304070000000000000000CD066E
:1000B00011241FBECFEFD8E0DEBFCDBF12E0A0E01D
:1000C000B1E0E2EEF7E102C005900D92A837B1076A
:1000D000D9F724E0A8E7B2E001C01D92A33EB20721
:1000E000E1F710E0C8E5D0E004C02197FE010E94CE
:1000F000A70AC735D107C9F70E942D070C94EF0B4B
:100100000C94000090E0FC01E656FF4F2491FC01A6
:10011000EA57FF4F3491FC01EE58FF4FE491EE2374
:10012000B1F1222339F1233091F038F42130A9F0D4
:10013000223001F584B58F7D12C0273091F0283030
:10014000A1F02430B9F4809180008F7D03C08091AC
:1001500080008F77809380000DC084B58F7784BD39
:1001600009C08091B0008F7703C08091B0008F7D6F
:100170008093B000F0E0EE0FFF1FE859FF4FA5910C
:10018000B4918FB7F894EC913E2B3C938FBF0895B8
:100190002091CE0390912D03213208F04AC0809126
:1001A000CD038111FCCF32E03093CD0331E03093A9
:1001B000CC033FEF30930B0310920A032093090303
:1001C000ADE0B3E049EE52E0FA013E2F341B3217A6
:1001D00018F43D913193F9CF1092E8022091E80292
:1001E000990F922B9093E8029091CB03913061F498
:1001F0001092CB039091E8029093BB009091BC00C9
:1002000093FDF8CF95EC01C095EE9093BC009091D2
:10021000CD039230E1F390910B039F3F79F08091F1
:100220000B03803241F080910B03803331F084E086
:1002300005C081E003C082E001C083E01092CF03DB
:100240001092CE0310920C0308958091D00390E099
:100250002091D103821B91090895E0912E03F09122
:100260002F030190F081E02D682F8EE293E0099436
:10027000AEEDB3E080E090E04D91E6E0F1E020E00B
:1002800030E06191562F542356130EC0FC01E25208
:10029000FC4F50954523408343E0880F991F4A95B2
:1002A000E1F7820F931F08952F5F3F4F28303105EC
:1002B00041F7019680349105F9F68FEF9FEF08958D
:1002C000FC01538D448D252F30E0842F90E0821B5C
:1002D000930B541710F0CF96089501970895FC01E1
:1002E000918D828D981761F0828DDF01A80FB11D6D
:1002F0005D968C91928D9F5F9F73928F90E0089591
:100300008FEF9FEF0895FC01918D828D981731F04A
:10031000828DE80FF11D858D90E008958FEF9FEF9E
:100320000895FC01918D228D892F90E0805C9F4F74
:10033000821B91098F73992708958EE293E00E94A2
:10034000910121E0892B09F420E0822F0895FC011E
:10035000848DDF01A80FB11DA35ABF4F2C91848D4E
:1003600090E001968F739927848FA689B7892C9383
:10037000A089B1898C9180648C93938D848D98131E
:1003800006C00288F389E02D80818F7D80830895E7
:10039000EF92FF920F931F93CF93DF93EC0181E0D5
:1003A000888F9B8D8C8D981305C0E889F989808191
:1003B00085FD24C0F62E0B8D10E00F5F1F4F0F73CD
:1003C0001127E02E8C8DE8120CC00FB607FCFACF77
:1003D000E889F989808185FFF5CFCE010E94A701C8
:1003E000F1CF8B8DFE01E80FF11DE35AFF4FF08234
:1003F0000B8FEA89FB898081806207C0EE89FF89C3
:100400006083E889F98980818064808381E090E05D
:10041000DF91CF911F910F91FF90EF900895CF93AF
:10042000DF93EC01888D8823C9F0EA89FB898081FC
:1004300085FD05C0A889B9898C9186FD0FC00FB6CE
:1004400007FCF5CF808185FFF2CFA889B9898C910F
:1004500085FFEDCFCE010E94A701E7CFDF91CF91BD
:10046000089580E090E0892B29F00E949D01811180
:100470000C9400000895CF92DF92EF92FF920F93B9
:100480001F93CF93DF936C017A018B01C0E0D0E022
:10049000CE15DF0589F0D8016D918D01D601ED9162
:1004A000FC910190F081E02DC6010995892B11F492
:1004B0007E0102C02196ECCFC701DF91CF911F9141
:1004C0000F91FF90EF90DF90CF90089585ED80938E
:1004D000BC008091BC0084FDFCCF1092CD03089538
:1004E00040919A02262F30E0240F311D2132310530
:1004F000DCF42091CD032430C9F4FC0180E090E0CD
:10050000861758F430919A022191DC01A858BD4F0A
:10051000A30FB11D2C930196F3CF80919A02680F1F
:1005200060939A0280E0089581E0089582E0089542
:100530000895E091D1038091D003E81730F4F0E002
:10054000E853FD4F808190E008958FEF9FEF08956D
:100550009091D1038091D003981750F4E92FF0E0E7
:10056000E853FD4F208130E09F5F9093D10302C09C
:100570002FEF3FEFC9010895CF92DF92EF92FF92E4
:100580000F931F93CF93DF937C01262F972F8A0120
:1005900080910C03882391F0C62FD72F6E01C40ED3
:1005A000D51ECC15DD0571F06991D701ED91FC9157
:1005B0000190F081E02DC7010995F3CF642F822FC0
:1005C0000E947002C801DF91CF911F910F91FF909F
:1005D000EF90DF90CF900895CF93DF931F92CDB728
:1005E000DEB7698320910C032223D1F02091CE0342
:1005F000203240F021E030E0FC013383228380E0B0
:1006000090E015C08091CF03E82FF0E0E35FFC4F4E
:10061000998190838F5F8093CF038093CE0305C031
:1006200061E0CE0101960E94700281E090E00F909F
:10063000DF91CF910895089580E090E00895CF93E1
:10064000DF93D1E0C0E5D0930C03C0932D0310924B
:10065000CF031092CE030E94C8008111F4CFDF9126
:10066000CF910895EF92FF921F93CF93DF9300D025
:10067000CDB7DEB77C01162F4A8379830E941F0312
:1006800081E080930C0380E580932D031092CF03CB
:100690001092CE03698182ED93E00E94EC02612FFB
:1006A00082ED93E00E94EC024A81642F82ED93E098
:1006B0000E94EC020E94C800C7010F900F90DF91CA
:1006C000CF911F91FF90EF900C941F03CF92DF9278
:1006D000EF92FF920F931F93CF93DF936C017B01F7
:1006E00086E0EE0CFF1C8A95E1F78A01C0E0D0E0BD
:1006F000F80141918F01BE016E0D7F1DC6010E9460
:1007000032032196C034D10599F7DF91CF911F9123
:100710000F91FF90EF90DF90CF9008951F93CF93AC
:10072000DF931F92CDB7DEB7182F692F8EED94E0BF
:1007300069830E941F0381E080930C0380E580930E
:100740002D031092CF031092CE03698182ED93E0C6
:100750000E94EC02612F82ED93E00E94EC020E9465
:10076000C8008091CD038111FCCF81E08093CD033F
:100770008093CC039FEF90930B0310920A03109287
:1007800009038093E8028091E802806A8093E8027E
:100790008091CB03813061F41092CB038091E80209
:1007A0008093BB008091BC0083FDF8CF85EC01C035
:1007B00085EE8093BC008091CD038130E1F3809180
:1007C0000A03811103C080910A0301C081E0A9EEF0
:1007D000B2E028EC32E0F9019E2F921B981718F432
:1007E0009D919193F9CF1092D1038093D003811101
:1007F00001C0FFCF82ED93E00E94A802182F0E9453
:10080000C800812F0F90DF91CF911F910895EF9233
:10081000FF920F931F93CF93DF9326E0880F991FCA
:100820002A95E1F77B0120E4E20EF11CEB018C013B
:10083000061B170BC8018C0F9D1F0E948E03899306
:10084000CE15DF05B9F7DF91CF911F910F91FF9082
:10085000EF900895009769F0FC0101900020E9F7FE
:100860003197AF01481B590BBC018EE293E00C9409
:100870003B0280E090E0089582E391E00C942A042A
:100880000C942A048F929F92AF92BF92CF92DF92E4
:10089000EF92FF920F931F93CF93DF93CDB7DEB705
:1008A000A1970FB6F894DEBF0FBECDBF6C01990FB4
:1008B000EE08FF08F7FE29C08DE20E942D018C0191
:1008C00022273327A9012C193D094E095F0919A2D6
:1008D000CE0181967C019AE0892E912CA12CB12C1D
:1008E000CA01B901A50194010E94710A605DF70176
:1008F00062937F01211531054105510589F7CF012B
:100900000E942A04800F911F1DC0A701960119A201
:100910008E010F5D1F4F8AE0C82ED12CE12CF12CE7
:10092000CA01B901A70196010E94710A605DF80130
:1009300062938F01211531054105510589F7CF01DA
:100940000E942A04A1960FB6F894DEBF0FBECDBF59
:10095000DF91CF911F910F91FF90EF90DF90CF909B
:10096000BF90AF909F908F900895CF93DF930E9498
:100970002A04EC010E943C048C0F9D1FDF91CF9153
:1009800008950F931F93CF93DF938C01CEE1D4E0B2
:10099000899199918F3F2FEF9207F9F06EE974E0FA
:1009A0000E94070465E371E08EE994E00E94E60B83
:1009B000892B99F48FE391E00E94400485E391E054
:1009C0000E9440040E943C0480E4EEE9F4E0D80177
:1009D00001900D928A95E1F708C084E0CE35D807E2
:1009E000B9F68EE491E00E94B504C801DF91CF9181
:1009F0001F910F9108950E94DA0B1F920F920FB66C
:100A00000F9211242F933F938F939F93AF93BF9394
:100A10008091C4029091C502A091C602B091C70214
:100A20003091C30223E0230F2D3720F40196A11D3E
:100A3000B11D05C026E8230F0296A11DB11D20930C
:100A4000C3028093C4029093C502A093C602B093E0
:100A5000C7028091BF029091C002A091C102B091E3
:100A6000C2020196A11DB11D8093BF029093C002E6
:100A7000A093C102B093C202BF91AF919F918F9199
:100A80003F912F910F900FBE0F901F9018951F92BE
:100A90000F920FB60F9211242F933F934F935F93B2
:100AA0006F937F938F939F93AF93BF93EF93FF9336
:100AB0008EE293E00E94A701FF91EF91BF91AF9169
:100AC0009F918F917F916F915F914F913F912F9166
:100AD0000F900FBE0F901F9018951F920F920FB698
:100AE0000F9211242F938F939F93EF93FF93E09195
:100AF0003E03F0913F038081E0914403F091450370
:100B000082FD12C09081809147038F5F8F73209187
:100B10004803821751F0E0914703F0E0E25DFC4F9B
:100B2000958F8093470301C08081FF91EF919F9142
:100B30008F912F910F900FBE0F901F9018951F92BD
:100B40000F920FB60F9211242F933F934F935F9301
:100B50006F937F938F939F93AF93BF93EF93FF9385
:100B60008091B900887F803609F49CC068F588328E
:100B700009F45BC090F4803109F454C038F4882340
:100B800009F4F6C0883009F44DC0F6C0883109F484
:100B90004CC0803209F45DC0EFC0803409F468C0F5
:100BA00048F4803309F455C0883309F0E5C08093D8
:100BB0000B03D8C0803509F44FC0883509F45DC0F7
:100BC000883409F0D9C0D6C0883909F4C7C0A8F460
:100BD000883709F467C038F4883609F463C0803771
:100BE00009F460C0C9C0883809F4B8C0803909F474
:100BF0005FC0803809F0C0C05BC0803B09F486C08C
:100C000038F4803A09F466C0883A09F47FC0B4C069
:100C1000803C09F4A7C0883C09F4A4C0883B09F4CF
:100C20008AC0AAC08091E80210C090910A03809106
:100C30000903981770F5E0910A0381E08E0F809305
:100C40000A03F0E0E751FD4F80818093BB0085EC03
:100C500086C080930B038EC0E0910A0381E08E0F63
:100C600080930A038091BB00F0E0E751FD4F808341
:100C700090910A03809109036EC0E0910A0381E01C
:100C80008E0F80930A038091BB00F0E0E751FD4F87
:100C900080838091CC0381116DC081E08093CB0370
:100CA00084EA61C083E08093CD031092BE02CFCF6F
:100CB0008091BE02803208F051C0E091BE0281E016
:100CC0008E0F8093BE028091BB00F0E0E256FD4F94
:100CD0008083BDCF85EC8093BC001092CD038091C2
:100CE000BE02803230F4E091BE02F0E0E256FD4FE9
:100CF00010826091BE0270E0E0919C02F0919D0232
:100D00008EE992E009951092BE0236C084E080938D
:100D1000CD0310929B0210929A02E0919802F091FA
:100D20009902099580919A02811105C081E0809312
:100D30009A0210927802E0919B0281E08E0F8093DC
:100D40009B02F0E0E858FD4F80818093BB009091BA
:100D50009B0280919A02981708F479CF85E88093D6
:100D6000BC000AC085EC8093BC001092CD0304C087
:100D700010920B030E946602FF91EF91BF91AF9119
:100D80009F918F917F916F915F914F913F912F91A3
:100D90000F900FBE0F901F901895EEE2F3E01382B4
:100DA000128288EE93E0A0E0B0E084839583A6836E
:100DB000B78322E131E03183208325EC30E03587B1
:100DC000248724EC30E03787268720EC30E0318B15
:100DD000208B21EC30E0338B228B22EC30E0358B02
:100DE000248B26EC30E0378B268B118E128E138EDF
:100DF000148EE2EDF3E01382128284839583A6833E
:100E0000B78384E291E0918380831092BD041092B5
:100E1000BC041092D1031092D0031092CF03109211
:100E2000CE031092CD0381E08093CC031092CB03CC
:100E300082E10E94820083E10E948200E9EBF0E0FF
:100E400080818E7F808380818D7F808388E4809302
:100E5000B80085E48093BC000895CF93DF93CDB7AD
:100E6000DEB7C05CD1090FB6F894DEBF0FBECDBFB0
:100E7000789484B5826084BD84B5816084BD85B575
:100E8000826085BD85B5816085BD80916E00816081
:100E900080936E0010928100809181008260809327
:100EA0008100809181008160809381008091800029
:100EB0008160809380008091B10084608093B10054
:100EC0008091B00081608093B00080917A0084604E
:100ED00080937A0080917A00826080937A0080917A
:100EE0007A00816080937A0080917A008068809394
:100EF0007A001092C100E0913E03F0913F0382E03E
:100F00008083E0913A03F0913B031082E0913C032F
:100F1000F0913D0380E1808310924603E09142030B
:100F2000F091430386E08083E0914003F091410318
:100F3000808180618083E0914003F0914103808152
:100F400088608083E0914003F09141038081806854
:100F50008083E0914003F091410380818F7D808305
:100F60008AE691E00E94B50440E450E06FEF70E043
:100F70008EED93E00E94DF0B0EE1A02E04E0B02E78
:100F8000F5018FEF9FEF8193919324E0EE35F20707
:100F9000D1F78091DE038C7F8093DE034EED53E02A
:100FA00060E070E08EED94E00E9466034EE154E054
:100FB00061E070E08EED94E00E9466036EED73E0F8
:100FC00080E090E00E9407046EE174E081E090E030
:100FD0000E9407048EE791E00E94B5040EE114E040
:100FE000F801819191918F018F3FFFEF9F0749F1A8
:100FF0006EE974E00E940704EEEBF4E0E12CF12CC2
:1010000081919191019619F030E4E30EF11C44E0D6
:10101000EE3DF407A9F782EA91E00E9440048EE9D0
:1010200094E00E9440048FE891E00E944004C701D0
:101030000E94420482E991E00E9440048AE00E94FA
:101040002D0164E00E35160759F689E991E00E94FA
:10105000400485E391E00E9440040E943C040EE1BC
:1010600014E0F801819191918F018F3FFFEF9F076D
:1010700079F06EE974E00E94070465E371E08EE99F
:1010800094E00E94E60B892B19F489EA91E012C2E0
:1010900024E00E35120729F70E9438018F3F3FEFF9
:1010A000930719F481ED91E005C2EEE1F4E020E050
:1010B00030E0419151914F3F5F4F59F4220F331F60
:1010C000F901E25EFB4F91838083AEE9B4E0FD015C
:1010D00008C02F5F3F4F2032310559F785E592E078
:1010E000E9C1119224E0EC3BF207D9F7E5E3F1E026
:1010F00031E0EE33F30719F021912D93F9CF1092DF
:10110000BD041092BC04EEEBF4E02FEF3FEF21930F
:10111000319344E0EE3DF407D1F74EE954E0BC01D1
:101120008EED94E00E9466034EE154E061E070E0D1
:101130008EED94E00E9466034EED53E060E070E0B7
:101140008EED94E00E946603CE018F5B9F4F0E945C
:10115000C104ABEEEA2EA1E0FA2EB0E4CB2ED12CE6
:10116000A1968EAD9FADA19797FDCF968C01E6E03D
:1011700015950795EA95E1F7005F1F4F000F111FC6
:1011800081E490E08C0F9D1F080F191FF8018081EA
:101190009181019629F40E943801F801918380839E
:1011A000F70141917F01A1968EAD9FADA1979C0162
:1011B00097FF02C0215C3F4FF90156E0F595E79596
:1011C0005A95E1F77096EE0FFF1F21E430E02C0FE7
:1011D0003D1FE20FF31F608171819B0176E0220FBA
:1011E000331F7A95E1F7B6010E945D0AB901680FD5
:1011F000791F8EED94E00E9432038BE092E00E9412
:101200004004A1968EAD9FADA1979C0197FF02C0AF
:10121000215C3F4FF90116E0F595E7951A95E1F746
:101220007096EE0FFF1F21E430E02C0F3D1FE20F00
:10123000F31F2081318146E0220F331F4A95E1F7E9
:10124000B6010E945D0A820F931F0E9442040E9411
:101250003C0484E292E00E944004A1968EAD9FADD2
:10126000A1979C0197FF02C0215C3F4FF90176E0F6
:10127000F595E7957A95E1F77096EE0FFF1F21E45B
:1012800030E02C0F3D1FE20FF31F20813181B6E0CB
:10129000220F331FBA95E1F7B6010E945D0A820F53
:1012A000931F0E948E030E942D010E943C04A19670
:1012B0008EAD9FADA1970196A1969FAF8EAFA197DE
:1012C0003AE0E31632E0F30609F04ACF00E010E01E
:1012D000F501819191915F018F3FFFEF9F0779F1B8
:1012E0006EE974E00E940704BE016F5B7F4F8EE9D8
:1012F00094E00E94E60B892B11F58EE292E00E94A9
:101300004004CE018F5B9F4F0E9440040E943C042A
:10131000000F111FF801E25EFB4F60817181AE0189
:101320004F5B5F4F8EED94E00E9466034EED53E0FD
:1013300060E070E08EED94E00E94660305C00F5FF0
:101340001F4F0032110521F6CE018F5B9F4F0E9487
:10135000420BCE018F579F4F0E94C10480E4FE01D3
:10136000EF57FF4FDE01AF5BBF4F01900D928A95A3
:10137000E1F7A1961FAE1EAEA1978E010F5F1F4F22
:101380006E0120E2C20ED11C50E4E52EF12C8DE35B
:1013900092E00E944004A1968EAD9FADA1979C0162
:1013A00097FF02C0215C3F4FF901A6E0F595E79554
:1013B000AA95E1F77096EE0FFF1F21E430E02C0FA5
:1013C0003D1FE20FF31F2081318146E0220F331FC2
:1013D0004A95E1F7B7010E945D0A820F931F0E94B0
:1013E00042040E943C0484E292E00E944004A196E0
:1013F0008EAD9FADA1979C0197FF02C0215C3F4F2E
:10140000F90156E0F595E7955A95E1F77096EE0FDC
:10141000FF1F21E430E02C0F3D1FE20FF31F20815E
:10142000318176E0220F331F7A95E1F7B7010E94F0
:101430005D0A820F931F0E948E030E942D010E945D
:101440003C04A1968EAD9FADA1979C0197FF02C071
:10145000215C3F4FF90126E0F595E7952A95E1F7E4
:101460007096EE0FFF1F21E430E02C0F3D1FE20FBE
:10147000F31F2081318146E0220F331F4A95E1F7A7
:10148000B7010E945D0A820F931F0E948E03F8012C
:1014900081938F01A1968EAD9FADA1970196A196E4
:1014A0009FAF8EAFA197EC15FD0509F070CF0E949C
:1014B0003102FDCF0E94B50447CE97FB072E16F4EC
:1014C000009407D077FD09D00E94930A07FC05D04D
:1014D0003EF4909581959F4F0895709561957F4F4B
:1014E0000895A1E21A2EAA1BBB1BFD010DC0AA1F65
:1014F000BB1FEE1FFF1FA217B307E407F50720F07D
:10150000A21BB30BE40BF50B661F771F881F991FF7
:101510001A9469F760957095809590959B01AC0140
:10152000BD01CF010895AA1BBB1B51E107C0AA1F33
:10153000BB1FA617B70710F0A61BB70B881F991F74
:101540005A95A9F780959095BC01CD010895EE0FAD
:10155000FF1F0590F491E02D0994CF93DF93823023
:10156000910510F482E090E0E091E104F091E20452
:1015700020E030E0C0E0D0E0309711F140815181AF
:1015800048175907C0F04817590761F482819381C1
:10159000209719F09B838A832BC09093E204809359
:1015A000E10426C02115310519F04217530718F43C
:1015B0009A01BE01DF01EF010280F381E02DDCCF53
:1015C0002115310509F1281B390B2430310590F420
:1015D00012968D919C9113976115710521F0FB0175
:1015E0009383828304C09093E2048093E104FD011D
:1015F000329644C0FD01E20FF31F81939193225074
:1016000031092D933C933AC02091DF043091E004DE
:10161000232B41F420910201309103013093E00427
:101620002093DF0420910001309101012115310543
:1016300041F42DB73EB74091040150910501241BA0
:10164000350BE091DF04F091E004E217F307A0F41A
:101650002E1B3F0B2817390778F0AC014E5F5F4F08
:101660002417350748F04E0F5F1F5093E004409356
:10167000DF048193919302C0E0E0F0E0CF01DF91BD
:10168000CF9108950F931F93CF93DF93009709F4A1
:101690008CC0FC013297138212820091E1041091F8
:1016A000E2040115110581F420813181820F931F1D
:1016B0002091DF043091E0042817390779F5F09381
:1016C000E004E093DF0471C0D80140E050E0AE17C1
:1016D000BF0750F412962D913C911397AD0121153F
:1016E000310509F1D901F3CF9D01DA01338322835A
:1016F00060817181860F971F8217930769F4EC014F
:1017000028813981260F371F2E5F3F4F3183208379
:101710008A819B8193838283452B29F4F093E20491
:10172000E093E10442C01396FC93EE931297ED010F
:10173000499159919E01240F351FE217F30771F467
:1017400080819181840F951F029611969C938E93B0
:101750008281938113969C938E931297E0E0F0E040
:10176000D80112968D919C911397009719F0F8016A
:101770008C01F6CF8D919C9198012E5F3F4F820F87
:10178000931F2091DF043091E0042817390769F492
:10179000309729F41092E2041092E10402C01382FF
:1017A00012821093E0040093DF04DF91CF911F9128
:1017B0000F91089581E090E0F8940C94EF0BDC0118
:1017C00001C06D9341505040E0F70895FB01DC01EA
:1017D0008D91019080190110D9F3990B0895F89417
:0217E000FFCF39
:1017E2000000E30480000102040810204080000091
:1017F2000000C8013B0260010F0291016F018301E9
:1018020000000000EC02BC021C0398022501A802A1
:1018120099020D0A0046696C65312E747874004F86
:1018220070656E696E672066696C653A2000455284
:10183200524F523A2046696C6520646F6573206E80
:101842006F742065786973742100466F726D6174DC
:10185200696E6720454550524F4D2E2E2E006C6901
:101862007374696E672066696C65732E2E2E002C68
:101872002000206279746573004372656174696E39
:10188200672046696C653A20004552524F523A2011
:1018920046696C6520616C7265616479206578695E
:1018A20073747320696E206469726563746F7279F0
:1018B200004552524F523A204E6F20737061636559
:1018C20020696E20454550524F4D0048656C6C6F43
:1018D2002066726F6D2041726475696E6F20466971
:1018E2006C652053797374656D210042595445200B
:1018F2004E554D424552205752495454454E20545C
:101902004F3A2000434F4E54454E543A2000436C08
:101912006F73696E672066696C653A20004259549C
:1019220045204E554D424552205245414420465293
:101932004F4D3A20004552524F523A204E6F20737B
:101942007061636520696E2066696C6520646972E6
:081952006563746F72790000F7
:00000001FF
