:100000000C945D000C9485000C9485000C94850084
:100010000C9485000C9485000C9485000C9485004C
:100020000C9485000C9485000C9485000C9485003C
:100030000C9485000C9485000C9485000C9485002C
:100040000C94D0030C9485000C9440040C941A0476
:100050000C9485000C9485000C9485000C9485000C
:100060000C9485000C94850000000008000201003B
:100070000003040700000000000000000000000072
:10008000250028002B0000000000240027002A0083
:10009000010204081020408001020408102001021F
:1000A00004081020040404040404040402020202EC
:1000B0000202030303030303720411241FBECFEFE4
:1000C000D8E0DEBFCDBF11E0A0E0B1E0E6E4FBE0A8
:1000D00002C005900D92AC34B107D9F724E0ACE42E
:1000E000B1E001C01D92AE31B207E1F710E0CDE5FD
:1000F000D0E004C02197FE010E949605CC35D107BF
:10010000C9F70E940B050C94A1050C94000090E027
:10011000FC01E057FF4F2491FC01EC55FF4F849107
:10012000882399F090E0880F991FFC01EA57FF4F50
:10013000A591B491FC01E458FF4F859194918FB73C
:10014000F894EC91E22BEC938FBF0895E5E5F1E094
:10015000A089B18982E08C93A485B5851C92A6857F
:10016000B78580E18C93108EA489B58986E08C9345
:10017000A289B3898C9180618C93A289B3898C9177
:1001800088608C93A289B3898C9180688C93028853
:10019000F389E02D80818F7D8083089590E0FC01BC
:1001A000E859FF4F3491FC01E057FF4F2491FC01C7
:1001B000EC55FF4FE491EE2309F43BC0332339F1B2
:1001C000333091F038F43130A9F0323001F584B594
:1001D0008F7D12C0373091F03830A1F03430B9F44F
:1001E000809180008F7D03C0809180008F77809305
:1001F00080000DC084B58F7784BD09C08091B000A8
:100200008F7703C08091B0008F7D8093B000F0E0C5
:10021000EE0FFF1FE458FF4FA591B4918FB7F894EC
:10022000EC91611103C020952E2301C02E2B2C933D
:100230008FBF0895FC01538D448D252F30E0842F0E
:1002400090E0821B930B541710F0CF9608950197FE
:100250000895FC01918D828D981761F0828DDF01E8
:10026000A80FB11D5D968C91928D9F5F9F73928FA9
:1002700090E008958FEF9FEF0895FC01918D828D9E
:10028000981731F0828DE80FF11D858D90E008956B
:100290008FEF9FEF0895FC01918D228D892F90E0C3
:1002A000805C9F4F821B91098F739927089585E584
:1002B00091E00E944B0121E0892B09F420E0822F7C
:1002C0000895FC01848DDF01A80FB11DA35ABF4F13
:1002D0002C91848D90E001968F739927848FA68945
:1002E000B7892C93A089B1898C9180648C93938D6C
:1002F000848D981306C00288F389E02D80818F7D5C
:1003000080830895EF92FF920F931F93CF93DF9313
:10031000EC0181E0888F9B8D8C8D981305C0E88956
:10032000F989808185FD24C0F62E0B8D10E00F5FCA
:100330001F4F0F731127E02E8C8DE8120CC00FB6E3
:1003400007FCFACFE889F989808185FFF5CFCE01D6
:100350000E946101F1CF8B8DFE01E80FF11DE35A80
:10036000FF4FF0820B8FEA89FB898081806207C092
:10037000EE89FF896083E889F989808180648083C0
:1003800081E090E0DF91CF911F910F91FF90EF906E
:100390000895CF93DF93EC01888D8823C9F0EA8913
:1003A000FB89808185FD05C0A889B9898C9186FD6E
:1003B0000FC00FB607FCF5CF808185FFF2CFA8896B
:1003C000B9898C9185FFEDCFCE010E946101E7CF05
:1003D000DF91CF91089580E090E0892B29F00E9471
:1003E000570181110C9400000895CF92DF92EF9293
:1003F000FF920F931F93CF93DF936C017A018B01D0
:10040000C0E0D0E0CE15DF0589F0D8016D918D01F7
:10041000D601ED91FC910190F081E02DC601099586
:10042000892B11F47E0102C02196ECCFC701DF9128
:10043000CF911F910F91FF90EF90DF90CF90089593
:10044000089580E090E00895CF93DF93EC0161E0A0
:1004500089810E94CE0061E08881DF91CF910C9468
:10046000CE008EBD00000DB407FEFDCF8EB5089501
:100470008CB5837F8CBD8CB58F7D8CBD8CB58C7F0E
:1004800081608CBD8DB581608DBD60E0809115046B
:100490000E94CE0061E0809116040C94CE009F92E1
:1004A000AF92BF92CF92DF92EF92FF920F931F9382
:1004B000CF93DF9300D000D0CDB7DEB78A015A01C9
:1004C00020E2A20EB11C6B017C0185E0CC0CDD1C8E
:1004D000EE1CFF1C8A95D1F7C982DA82EB82FC827E
:1004E00080911704882371F0109217040E9438023B
:1004F00081E00E94310280E00E94310285E194E0B7
:100500000E9424020E94380283E00E9431028B8103
:100510000E9431028A810E94310289810E94310247
:1005200080E00E943102982E85E194E00E9424022E
:10053000F80191928F01FFEFCF1ADF0AEF0AFF0A4D
:100540000A151B0549F60F900F900F900F90DF9141
:10055000CF911F910F91FF90EF90DF90CF90BF90C0
:10056000AF909F900895AF92BF92CF92DF92EF929B
:10057000FF920F931F93CF93DF9300D000D0CDB79E
:10058000DEB78C010E94A60048E150E062E171E014
:1005900085E591E00E94F50142E050E06BE271E0F8
:1005A00085E591E00E94F501780117FF03C02FE176
:1005B000E20EF11C95E0F594E7949A95E1F7C801F5
:1005C00060E270E00E946E058C01E5EFF1E0DF0172
:1005D00020E030E08D919D918E159F0509F4C1C0FA
:1005E000C90101968031910511F09C01F3CF309340
:1005F000F4012093F301A12CB12C819191919501EB
:100600002F5F3F4F69010196D9F4A501B5E0440F72
:10061000551FBA95E1F74B5E5D4FB7010F2C000CEB
:10062000880B990B0E944F02F601EE0FFF1FED5051
:10063000FE4FF182E082B092F401A092F30186C0F5
:10064000560180E1C816D104C1F680911C04909136
:100650001D04FC01ED50FE4FD2A0880F991FFC0134
:10066000EB50FE4F80819181092E000CAA0BBB0B31
:1006700035E0880F991FAA1FBB1F3A95D1F78983D0
:100680009A83AB83BC8380911704803879F080E82B
:10069000809317040E94380281E00E94310280E8B2
:1006A0000E94310285E194E00E9424020E943802F7
:1006B00082E00E9431028B810E9431028A810E9475
:1006C000310289810E943102A12CB12CCD2CD12C78
:1006D000F501EC0DFD1D80810E9431022FEFA21A61
:1006E000B20A30E2A316B10499F785E194E00E94C2
:1006F0002402E0911C04F0911D0475E0EE0FFF1F31
:100700007A95E1F7ED50FE4F42A150E0B7010F2C72
:10071000000C880B990B0E944F0220911C04309111
:100720001D04C9010196FC01EE0FFF1FED50FE4FA5
:10073000F182E0823093F4012093F30160E170E0F4
:100740000E946E0590931D0480931C044091F30158
:100750005091F40165E0440F551F6A95E1F7CA0115
:100760000AC03093F4012093F30145E0220F331FB8
:100770004A95E1F7C901800F911F8B5E9D4F0F9045
:100780000F900F900F90DF91CF911F910F91FF90DD
:10079000EF90DF90CF90BF90AF9008950E949C059E
:1007A0001F920F920FB60F9211242F933F938F93A6
:1007B0009F93AF93BF938091510190915201A0916B
:1007C0005301B09154013091500123E0230F2D3794
:1007D00020F40196A11DB11D05C026E8230F029645
:1007E000A11DB11D2093500180935101909352019E
:1007F000A0935301B093540180914C0190914D010D
:10080000A0914E01B0914F010196A11DB11D8093A1
:100810004C0190934D01A0934E01B0934F01BF91B5
:10082000AF919F918F913F912F910F900FBE0F909D
:100830001F9018951F920F920FB60F9211242F93AD
:100840003F934F935F936F937F938F939F93AF9358
:10085000BF93EF93FF9385E591E00E946101FF91C3
:10086000EF91BF91AF919F918F917F916F915F9128
:100870004F913F912F910F900FBE0F901F901895A1
:100880001F920F920FB60F9211242F938F939F9365
:10089000EF93FF93E0916501F09166018081E09113
:1008A0006B01F0916C0182FD12C0908180916E010C
:1008B0008F5F8F7320916F01821751F0E0916E016D
:1008C000F0E0EB5AFE4F958F80936E0101C080815E
:1008D000FF91EF919F918F912F910F900FBE0F90ED
:1008E0001F901895CF93109258011092570188EEDF
:1008F00093E0A0E0B0E08093590190935A01A09357
:100900005B01B0935C0184E091E090935601809389
:10091000550185EC90E0909362018093610184EC35
:1009200090E0909364018093630180EC90E0909359
:1009300066018093650181EC90E09093680180935B
:10094000670182EC90E090936A018093690186ECE4
:1009500090E090936C0180936B0110926E01109265
:100960006F01109270011092710185E0809315045F
:1009700087E0809316041092170485E00E94870098
:10098000809116040E9487008AE00E94870085E11A
:1009900094E00E942402CFB7F8948091F201811173
:1009A00024C0EEEAF0E08491EAE9F0E09491E82FC7
:1009B000F0E0EE0FFF1FEA57FF4FA591B491EC91C5
:1009C000E92321F461E08AE00E94CE008AE00E94DF
:1009D00087008CB580618CBD8CB580648CBD8DE04A
:1009E0000E9487008BE00E9487008091F2018F5F58
:1009F0008093F201CFBFE5EFF1E08FEF9FEF81939E
:100A0000919322E0E531F207D1F710921D04109284
:100A10001C04CF910895789484B5826084BD84B518
:100A2000816084BD85B5826085BD85B5816085BDE9
:100A300080916E00816080936E00109281008091A1
:100A40008100826080938100809181008160809329
:100A50008100809180008160809380008091B1004E
:100A600084608093B1008091B00081608093B00079
:100A700080917A00846080937A0080917A0082600D
:100A800080937A0080917A00816080937A008091CF
:100A90007A00806880937A001092C1000E94A600BC
:100AA0000EE211E0C0E0D0E0CE010E94B302F801F6
:100AB00021918F01FC012083A096C038F3E0DF076D
:100AC00099F7C0E0D0E0CE010E94B302A096C038F2
:100AD00083E0D807C1F70E94EB01E2CF97FB072E16
:100AE00016F4009407D077FD09D00E94820507FC18
:100AF00005D03EF4909581959F4F0895709561952E
:100B00007F4F0895AA1BBB1B51E107C0AA1FBB1F43
:100B1000A617B70710F0A61BB70B881F991F5A9589
:100B2000A9F780959095BC01CD010895EE0FFF1FA8
:100B30000590F491E02D099481E090E0F8940C94F4
:060B4000A105F894FFCFAF
:100B4600000000008201F5011A01C9014B012901CB
:100B56003D01414343455353494E4720564952545C
:100B660055414C204D454D4F5259000D0A004865E0
:100B76006C6C6F2066726F6D205669727475616C4D
:0C0B8600204D656D6F7279212121000067
:00000001FF
